:100000000C9424020C946D020C946D020C946D02FD
:100010000C946D020C946D020C946D020C946D02A4
:100020000C946D020C946D020C94490F0C941F10EB
:100030000C94511D0C946D020C946D020C946D0285
:100040000C946D020C946D020C946D020C946D0274
:100050000C946D020C94B91D0C946D020C946D02FD
:100060000C946D020C946D020C946D020C946D0254
:100070000C946D020C946D020C946D020C946D0244
:100080000C946D020C946D020C946D020C946D0234
:100090000C946D020C946D029010B210A511B21068
:1000A000A511F7101A11A5116F118211261426142B
:1000B00050145014A614DA14B916B916F114B9165E
:1000C000DC15DC159116B916B916A616F0A1F0A22A
:1000D000F0A32B0014001A000800150017001C00E4
:1000E00018000C00120013002A002900040016005A
:1000F000070009000A000B000D000E000F0033007E
:100100002800E1001D001B00060019000500110079
:1001100010003600370038003472E000C200E300FF
:10012000E200C0002C822C002C0050005100520034
:100130004F0035003A003B003C003D003E0001000E
:100140002400250026000100010001003F004000BE
:100150004100420043002E022100220023002D0016
:100160000100010044004500460047004800250208
:100170001E001F00200038002E00010001000100B9
:10018000010001540100010027002700370036005C
:10019000290035021E021F02200221022202230230
:1001A00024022502260227024C00010049004A00D1
:1001B0004B00010001005000510052004F002D0281
:1001C000010001004C004D004E00010001002F0213
:1001D00030022F0030003100310201000100010027
:1001E000010001000100010002544A004E004B00D2
:1001F0004D0001000100F000F900010001000100C4
:10020000010001000100010000300100F200F100D6
:10021000F30001000454010001000100010001008D
:100220000100010001000100FA00010001000100CD
:100230000100010001000100010001000354010060
:100240000100F400F5000100F600AB00AA00A900CF
:10025000AE002B0014001A000800150017001C0047
:100260003A003B003C003D00045429000400160005
:10027000070009000A000B001E001F0020002100DB
:100280000100E1001D001B0006001900050011001F
:100290001000360037003800E100E000E200E30023
:1002A000E6002C002C002C002C00500051005200C5
:1002B0004F000A03720077006B00620000000A031F
:1002C000720077006B006200000004030904090259
:1002D0006D00040100A0FA090400000103010100FF
:1002E000092111010001223F000705810308000ACE
:1002F000090401000103010200092111010001228A
:100300004D000705820308000A09040200010300EA
:1003100000000921110100012236000705830308AE
:10032000000A090403000103000000092111010073
:100330000122390007058403100001120110010099
:10034000000008EDFE6060010001020001050109E6
:1003500006A101050719E029E71500250195087593
:10036000018102050819012905950575019102957C
:1003700001750391010507190029771500250195DD
:100380007875018102C005010980A101850216016D
:100390000026B7001A01002AB700751095018100E8
:1003A000C0050C0901A1018503160100269C021A53
:1003B00001002A9C02751095018100C00501090207
:1003C000A1010901A100050919012905150025014F
:1003D00095057501810295017503810105010930BB
:1003E00009311581257F9502750881060938158127
:1003F000257F950175088106050C0A3802158125AF
:100400007F950175088106C0C005010906A1010597
:100410000719E029E7150025019508750181029566
:1004200001750881010508190129059505750191D6
:10043000029501750391010507190029FF15002593
:10044000FF950675088100C011241FBECFEFD0E2D2
:10045000DEBFCDBF04B603FE27C08091B7039091E5
:10046000B803A091B903B091BA038730904BA7406D
:10047000B04BD1F41092B7031092B8031092B903A5
:100480001092BA0314BE84B7877F84BF0FB6F89466
:10049000A895809160008861809360001092600050
:1004A0000FBEE0E0F8EF099512E0A0E0B1E0EEE168
:1004B000F3E400E00BBF02C007900D92AA36B1072B
:1004C000D9F723E0AAE6B2E001C01D92A73BB2072C
:1004D000E1F70E948F0C0C948D210C94000008957C
:1004E0000C946F020C94F8020E94C80280E792E01C
:1004F000892B11F00C94700208958FE692E0892BFD
:1005000011F00E946F020E9417060895611105C044
:10051000FC01828181110E94F00280E090E0089548
:10052000FC0190E3A0E0B1E001900D929A95E1F713
:1005300080916A0290916B02A0916C02B0916D0261
:100540008F6F9F6FAF6F80936A0290936B02A0933F
:100550006C02B0936D0208950F931F9362FD09C062
:100560008B019C013695279517950795202F2170B3
:1005700001C022E063FD23E064FD24E030E3239F1B
:10058000C00111248F5C9E4F1F910F910C9490021B
:10059000EFE6F2E087E090E050E140E231E020E871
:1005A000108213825183548312821582168211861F
:1005B0004783428710861386148617861586108A0D
:1005C0003687318B128A158A238B268B148A178AD9
:1005D00001977896009721F781E391E00C949002BF
:1005E0009091300181E089278260809330010895E5
:1005F000882311F083E001C082E0809330010895E8
:100600002F923F924F925F926F927F928F929F9222
:10061000AF92BF92CF92DF92EF92FF920F931F9310
:10062000CF93DF93CDB7DEB7A1970FB6F894DEBFB7
:100630000FBECDBF00916A0210916B0220916C0237
:1006400030916D0241E050E060E070E0082E04C09F
:10065000440F551F661F771F0A94D2F74095509597
:1006600060957095402351236223732340936A025F
:1006700050936B0260936C0270936D022CE0829F2A
:10068000D0011124A050BF4F2C912095422F4770CC
:1006900050E0BA016F5F7F4F7A836983207722959C
:1006A0002F7030E0A9014F5F5F4F5C834B83119641
:1006B0002C9111972095422F477050E0BA016F5F3F
:1006C0007F4F7E836D83207722952F7030E0A901C4
:1006D0004F5F5F4F58874F8312962C91129720954A
:1006E000422F477050E0BA016F5F7F4F7A8769876A
:1006F000207722952F7030E0A9014F5F5F4F5C8714
:100700004B8713962C9113972095422F477050E0FA
:10071000BA016F5F7F4F7E876D87207722952F709C
:1007200030E0A9014F5F5F4F588B4F8714962C9193
:1007300014972095422F477050E0BA016F5F7F4FAA
:100740007A8B698B207722952F7030E0A9014F5F5B
:100750005F4F5C8B4B8B15962C9115972095422FF4
:10076000477050E0BA016F5F7F4F7E8B6D8B2077B3
:1007700022952F7030E0A9014F5F5F4F588F4F8B4C
:1007800016962C9116972095422F477050E0BA018B
:100790006F5F7F4F7A8F698F207722952F7030E0BF
:1007A000A9014F5F5F4F5C8F4B8F17969C911797F6
:1007B0009095292F277030E0A9014F5F5F4F5E8F22
:1007C0004D8F9077292E22949FE02922312C5FEFC4
:1007D000251A350A18969C9118979095292F2770FD
:1007E000422E512C6FEF461A560A9077692E62946A
:1007F0002FE06222712C7FEF671A770A19969C917D
:10080000199790959F8F9770C92ED12C2FEFC21AF0
:10081000D20A3F8D307732953F70432F50E04F5FC3
:100820005F4F59A348A31A960C911A970095902FE1
:100830009770A92EB12C6FEFA61AB60A0077029511
:100840000F7010E00F5F1F4F1B969C919095292F02
:100850002770822E912C7FEF871A970A9077E92EC6
:10086000E2943FE0E322F12C9FEFE91AF90A26E037
:10087000829FF0011124E159FD4F20E030E02F5F0D
:100880003F4FC9016B817C810E945C21482FC901C7
:1008900069817A810E945C21882319F08181877F98
:1008A00002C08181886081838481442311F0877F25
:1008B00001C088608483C9016F8178850E945C21B2
:1008C000482FC9016D817E810E945C21882319F027
:1008D00082818D7F02C082818260828385814423F0
:1008E00011F08D7F01C082608583C9016B857C8595
:1008F0000E945C21482FC90169857A850E945C218C
:10090000882319F081818D7F02C08181826081837B
:100910008481442311F08D7F01C082608483C901EA
:100920006F8578890E945C21482FC9016D857E857D
:100930000E945C21882319F081818E7F02C0818111
:10094000816081838481442311F08E7F01C08160A6
:100950008483C9016B897C890E945C21482FC9016D
:1009600069897A890E945C21882319F080818F77B8
:1009700002C08081806880838381442311F08F7757
:1009800001C080688383C9016F89788D0E945C21D2
:10099000482FC9016D897E890E945C21882319F046
:1009A00080818F7B02C08081806480838381442327
:1009B00011F08F7B01C080648383C9016B8D7C8DB6
:1009C0000E945C21482FC901698D7A8D0E945C21AB
:1009D000882319F080818F7D02C0808180628083AE
:1009E0008381442311F08F7D01C080628383C9011C
:1009F000B1010E945C21482FC9016D8D7E8D0E943E
:100A00005C21882319F080818F7E02C08081806103
:100A100080838381442311F08F7E01C080618383B2
:100A2000C901B3010E945C21482FC901B2010E9493
:100A30005C21882319F08081877F02C080818860D3
:100A400080838381442311F0877F01C08860838382
:100A5000C90168A179A10E945C21482FC901B60192
:100A60000E945C21882319F080818B7F02C08081E5
:100A7000846080838381442311F08B7F01C0846074
:100A80008383C901B8010E945C21482FC901B501C7
:100A90000E945C21882319F080818D7F02C08081B3
:100AA000826080838381442311F08D7F01C0826046
:100AB0008383C901B7010E945C21482FC901B40199
:100AC0000E945C21882319F080818E7F02C0808182
:100AD000816080838381442311F08E7F01C0816017
:100AE000838378962730310509F0C9CEA1960FB6D9
:100AF000F894DEBF0FBECDBFDF91CF911F910F9154
:100B0000FF90EF90DF90CF90BF90AF909F908F902D
:100B10007F906F905F904F903F902F900895CF936C
:100B2000DF93D82F80916E02C82FC17080FD15C051
:100B30008695837040916A0250916B0260916C02BD
:100B400070916D02082E04C076956795579547956C
:100B50000A94D2F740FD0E940003AFB7F89481B326
:100B600080B3E0916E02F0E0CF01880F991FE80F8B
:100B7000F91FE159FD4FB08128B157B1318154744B
:100B8000832F8B7B582B8EB14DB162814C7F962F7A
:100B90009370492BDD2389F1EB2FC111E095732F61
:100BA0007B70247FCC2321F0932F90959B7001C004
:100BB000972F292B962F9270792B7B2B8D7FCC230F
:100BC00019F0962F90959270892B711101C05F7466
:100BD000922F9F74232FC11101C02095207B292BB8
:100BE000711101C04E7F982F9E7F6170C11102C0AC
:100BF00081E06827862F892B06C0247454748C7F6B
:100C00004C7FB0E0E0E0E1BB28B98EB9B0BB57B98A
:100C10004DB9AFBF80916E028F5F883318F4809317
:100C20006E0202C010926E02DF91CF910895CF93B1
:100C3000C0913001C0FF04C081E0CF910C948F05BA
:100C4000C1FF06C080E00E948F05CD7FC0933001B8
:100C5000CF9108950895880F991FFC01E45BF0403F
:100C6000859194910895880F991FFC01E453FF4FDB
:100C700085919491089520E3829FC0011124FC0185
:100C80004CE0749FE00DF11D1124E60FF11DEE0FF5
:100C9000FF1FEE52FF4F859194919C01AC015A9534
:100CA00041156FE1560708F465C15F514115504188
:100CB00020F49F700E9433060895AC0150534115F3
:100CC000504118F49927906C0895811570E59707A5
:100CD00069F40E94D9168FEF94E32CE08150904084
:100CE0002040E1F700C000000C94DE1D813040E59B
:100CF000940731F480919B03816080939B03089556
:100D0000AC0150554115504108F05CC0492F5527A2
:100D10004F70552741305105D9F49C0174E0220FE2
:100D2000331F7A95E1F722273370BC016370772770
:100D300002C0440F551F6A95E2F75C68242B352BDF
:100D4000E3E0880F991FEA95E1F7807699271FC0A5
:100D50004230510529F4982F8827816F906A0895B1
:100D600043305105B9F49C0153E0220F331F5A95CB
:100D7000E1F7207E37708370992741E050E0BA0197
:100D800002C0660F771F8A95E2F7CB019C68822B21
:100D9000932B08954430510529F59C0143E0220F1F
:100DA000331F4A95E1F7207E37708370992741E021
:100DB00050E0BA0102C0660F771F8A95E2F7CB01B7
:100DC0009A68E5CFAC0150574115504118F49F7017
:100DD00090620895AC0150584115504118F49F702D
:100DE000906A0895AC01405C51094032510518F4F5
:100DF0000E942B0608958B3B910570F4883A91056B
:100E000040F5853A9105D0F48430910508F0B1C0E1
:100E1000019709F4AEC06CC0803E910508F468C02B
:100E2000883E910508F4A5C09C01205F310920315E
:100E3000310508F05DC09C0130659BC0853A910585
:100E400009F459C0863A910509F058C022E830E407
:100E500090C0883A910509F454C0893A910509F483
:100E600053C08A3A910509F452C08B3A910509F4AE
:100E700051C08C3A910509F450C08D3A910509F49E
:100E80004FC0803B910509F44EC08E3A910509F49C
:100E90004DC08F3A910509F44CC0813B910509F48E
:100EA0004BC0823B910509F44AC0833B910509F48C
:100EB00049C0843B910509F448C0853B910509F47C
:100EC00047C0863B910509F446C0873B910509F46C
:100ED00045C0883B910509F444C0893B910509F45C
:100EE00043C08A3B910509F442C020E034E441C08C
:100EF00020E030E03EC021E830E43BC023E830E4AD
:100F000038C022EE34E435C029EE34E432C02AEE93
:100F100034E42FC025EB34E42CC026EB34E429C0A4
:100F200027EB34E426C02CEC34E423C02DEC34E46D
:100F300020C023E835E41DC02AE835E41AC022E9C0
:100F400035E417C024E935E414C021E236E411C0C9
:100F500023E236E40EC024E236E40BC025E236E498
:100F600008C026E236E405C027E236E402C02AE2E1
:100F700036E4C901089508956F927F928F929F92EF
:100F8000AF92BF92CF92DF92EF92FF920F931F9397
:100F9000CF93DF93CDB7DEB728970FB6F894DEBFB7
:100FA0000FBECDBFCE0101966C014E0199E0890EB6
:100FB000911C20E030E040E050E060E070E000E0B4
:100FC00010E0E12CF12C7C2C6D2CAA24A394B12CE4
:100FD00088E0E6E3F2E0A72DB62D01900D928A9508
:100FE000E1F7F601819191916F01FC01E07FFF270C
:100FF000E032F10559F48F709927F50102C0EE0F28
:10100000FF1F8A95E2F7EE2AFF2A37C0E033F10589
:1010100059F48F709927F50102C0EE0FFF1F8A95D2
:10102000E2F70E2B1F2B29C0E034F10559F48F7025
:101030009927F50102C0EE0FFF1F8A95E2F76E2B8C
:101040007F2B1BC0E035F10559F48F709927F5010E
:1010500002C0EE0FFF1F8A95E2F74E2B5F2B0DC0EB
:10106000E036F10551F48F709927F50102C0EE0FBB
:10107000FF1F8A95E2F72E2B3F2BC814D90409F0E5
:10108000A7CF84B19E2D9095892384B985B1E82A94
:10109000E5B887B1902F9095892387B988B1082B3F
:1010A00008B98AB1962F909589238AB98BB1682B9C
:1010B0006BB98DB1942F909589238DB98EB1482B42
:1010C0004EB980B3922F9095892380BB81B3282B92
:1010D00021BB28960FB6F894DEBF0FBECDBFDF91BF
:1010E000CF911F910F91FF90EF90DF90CF90BF9025
:1010F000AF909F908F907F906F9008956F927F92A6
:101100008F929F92AF92BF92CF92DF92EF92FF9217
:101110000F931F93CF93DF93CDB7DEB768970FB6CA
:10112000F894DEBF0FBECDBF85B7806885BF85B799
:10113000806885BF0E94BC07CE0101966C014E01FC
:1011400099E1890E911C20E030E040E050E060E041
:1011500070E000E010E0E12CF12C7C2C6D2CAA2436
:10116000A394B12C88E1EEE3F2E0A72DB62D019017
:101170000D928A95E1F7F601819191916F01FC0141
:10118000E07FFF27E032F10559F48F709927F501D0
:1011900002C0EE0FFF1F8A95E2F7EE2AFF2A37C042
:1011A000E033F10559F48F709927F50102C0EE0F75
:1011B000FF1F8A95E2F70E2B1F2B29C0E034F105A3
:1011C00059F48F709927F50102C0EE0FFF1F8A9521
:1011D000E2F76E2B7F2B1BC0E035F10559F48F70C1
:1011E0009927F50102C0EE0FFF1F8A95E2F74E2BFB
:1011F0005F2B0DC0E036F10551F48F709927F50192
:1012000002C0EE0FFF1F8A95E2F72E2B3F2BC8146A
:10121000D90409F0A7CF84B19E2D9095892384B974
:1012200085B1E82AE5B887B1902F9095892387B9D1
:1012300088B1082B08B98AB1962F909589238AB96D
:101240008BB1682B6BB98DB1942F909589238DB993
:101250008EB1482B4EB980B3922F9095892380BBD5
:1012600081B3282B21BB1092200310921F031092F0
:101270001803109217031092220310922103109268
:101280001A03109219031092240310922303109250
:101290001C0310921B031092260310922503109238
:1012A0001E0310921D0384E792E0892BB1F068962B
:1012B0000FB6F894DEBF0FBECDBFDF91CF911F9167
:1012C0000F91FF90EF90DF90CF90BF90AF909F90E5
:1012D0008F907F906F900C94740268960FB6F8947C
:1012E000DEBF0FBECDBFDF91CF911F910F91FF9059
:1012F000EF90DF90CF90BF90AF909F908F907F90B6
:101300006F9008957F928F929F92AF92BF92CF92EB
:10131000DF92EF92FF920F931F93CF93DF93CDB79E
:10132000DEB7A0970FB6F894DEBF0FBECDBF6E013B
:1013300049E1C40ED11C87E1E82E83E0F82E460176
:1013400001E010E095E0792E88E0E6E3F2E0D401D8
:1013500001900D928A95E1F7F601819191916F01CB
:101360009C01207F33272032310591F424B18F7006
:101370009927A80102C0440F551F8A95E2F7CA01B8
:10138000922F982B94B995B18095892385B953C034
:101390002033310591F427B18F709927F80102C0ED
:1013A000EE0FFF1F8A95E2F7CF01922F982B97B986
:1013B00098B18095892388B93EC02034310591F4D5
:1013C0002AB18F709927A80102C0440F551F8A9532
:1013D000E2F7CA01922F982B9AB99BB18095892385
:1013E0008BB929C02035310591F42DB18F70992723
:1013F000F80102C0EE0FFF1F8A95E2F7CF01922F8E
:10140000982B9DB99EB1809589238EB914C0203642
:10141000310589F420B38F709927A80102C0440FC9
:10142000551F8A95E2F7CA01922F982B90BB91B372
:101430008095892381BB50EA5A95F1F7BE016F5F11
:101440007F4F20E030E040E050E0B62EA72E88E14C
:10145000EEE3F2E0AB2DBA2D01900D928A95E1F703
:10146000FB0181919191BF01FC01E07FFF27E032F8
:10147000F10511F4E3B113C0E033F10511F4E6B165
:101480000EC0E034F10511F4E9B109C0E035F10511
:1014900011F4ECB104C0E036F105B9F4EFB1F0E0BD
:1014A0008F70992702C0F595E7958A95E2F7E0FDE0
:1014B00008C0C801042E02C0880F991F0A94E2F7E1
:1014C00002C080E090E0282B392B4F5F5F4F4C30FB
:1014D000510509F0BCCFF7018081918182179307F4
:1014E00021F031832083709221020E94BC07F2E038
:1014F000EF0EF11C4FE1E41643E0F40609F024CFAF
:1015000080912102882361F18150809321028823F8
:1015100039F08FE99FE00197F1F700C0000020C08B
:1015200080911703909118039093200380931F03D9
:101530008091190390911A039093220380932103C1
:1015400080911B0390911C039093240380932303A9
:1015500080911D0390911E03909326038093250391
:101560008DE792E0892B11F00E947D0281E0A09628
:101570000FB6F894DEBF0FBECDBFDF91CF911F91A4
:101580000F91FF90EF90DF90CF90BF90AF909F9022
:101590008F907F900895E82FF0E0EE0FFF1FE15E3F
:1015A000FC4F8081918108950895809137030895BB
:1015B000CF93DF9300D01F92CDB7DEB79C0180910F
:1015C000AE03843019F593E099833B832A8390938B
:1015D000E9008FEF9091E800815095FD06C095EDF0
:1015E0009A95F1F700008111F5CF8091E80085FF11
:1015F0000DC040E050E063E070E0CE0101960E9433
:101600003E0D8091E8008E778093E8000F900F9058
:101610000F90DF91CF910895CF93DF9300D01F9269
:10162000CDB7DEB72091AE03243021F522E0298327
:101630009B838A8383E08093E9008FEF9091E80099
:10164000815095FD06C095ED9A95F1F70000811146
:10165000F5CF8091E80085FF0DC040E050E063E0E9
:1016600070E0CE0101960E943E0D8091E8008E77D9
:101670008093E8000F900F900F90DF91CF91089525
:101680002091AE032430F1F422E02093E9002FEF03
:101690003091E800215035FD06C035ED3A95F1F75F
:1016A00000002111F5CF2091E80025FF0BC040E09C
:1016B00050E065E070E00E943E0D8091E8008E777A
:1016C0008093E8000895CF93DF93EC019091AE03EF
:1016D000943009F046C080912C028823D9F0809183
:1016E0002D028823B9F09093E9008FEF9091E800E4
:1016F000815095FD06C095E19A95F1F700008111A2
:10170000F5CF8091E80085FF2CC040E050E060E11B
:1017100070E017C081E08093E9008FEF9091E800BE
:10172000815095FD06C095ED9A95F1F70000811165
:10173000F5CF8091E80085FF14C040E050E068E0FC
:1017400070E0CE010E943E0D8091E8008E7780937C
:10175000E80080E1FE01A7E2B3E001900D928A95D6
:10176000E1F7DF91CF9108958091AD03811109C018
:101770000E94CB0E0E942D0F8091E2008460809326
:10178000E20008951092AD030895089508950C9411
:10179000471D42E061EC81E00E94440E42E061ECB2
:1017A00082E00E94440E42E061EC83E00E94440E1D
:1017B00042E161EC84E00C94440E8091B0038330EC
:1017C00009F455C030F4813071F0823009F48EC0D4
:1017D00008958A3009F47AC08B3009F460C08930EA
:1017E00009F09CC020C08091AF03813A09F096C0F7
:1017F0008091E800877F8093E8008091B303909107
:10180000B403892B21F460E187E293E003C060E038
:1018100080E090E070E00E94890D8091E8008B7775
:101820008093E80008958091AF03813209F076C07B
:101830008091B3039091B403009719F0039709F0D6
:101840006DC08091E800877F8093E8008091E80078
:1018500082FD05C08091AE038111F8CF5FC08091F9
:10186000F100809337038091E8008B7753C080911B
:10187000AF03813A09F052C08091B3039091B40351
:10188000892B09F04BC08091E800877F8093E800A6
:101890008091E80080FFFCCF80912C0236C08091BF
:1018A000AF038132D9F58091B3039091B403892BB2
:1018B000A9F58091E800877F8093E8000E94790E67
:1018C0008091B10380932C020C94D9168091AF03C0
:1018D000813221F58091E800877F8093E8000E94A3
:1018E000790E8091B2038093380308958091AF03FD
:1018F000813AA1F48091E800877F8093E80080918D
:10190000E80080FFFCCF809138038093F100809144
:10191000E8008E778093E8000C94790E089584B7E0
:10192000877F84BF0FB6F894A89580916000886186
:1019300080936000109260000FBE90E080E80FB6C8
:10194000F89480936100909361000FBE0E942D1265
:101950000E94CB0E0E942D0F8091E2008460809344
:10196000E20078940E94BE110E942F1282E292E05F
:101970000E94D91180E09091AE03953069F40E94E5
:10198000FE1C8091AC03882329F00E942E1D81113A
:101990000E94280D81E0EFCF81110E94471D0E9417
:1019A0003312E8CF292F332723303105C9F060F4F3
:1019B0002130310581F02230310509F041C08DE63A
:1019C00090E02EEC32E040C021323105E1F02232CD
:1019D000310531F135C082E190E02BE333E034C0D2
:1019E00099278130910549F028F0029749F5E2EBFB
:1019F000F2E005C0EAECF2E002C0EEEBF2E0849126
:101A000090E09F0121C06430D8F4E62FF0E0EE0FA3
:101A1000FF1FEE59FD4F2081318189E090E014C015
:101A2000643070F470E0FB01EE0FFF1FE65AFD4FCB
:101A300020813181FB01EA5AFD4F808190E004C092
:101A400080E090E020E030E0FA01318320830895C7
:101A500084E189BD86E189BD09B400FEFDCF809196
:101A6000D8008F7D8093D8008091E00082608093C1
:101A7000E0008091E00081FDFCCF0895CF92DF92DD
:101A8000EF92FF920F931F93CF93DF93EC018B01A3
:101A90007A010E94980E811133C0E114F10439F0EB
:101AA000F70180819181081B190BC80FD91FC12C28
:101AB000D12C0115110519F18091E80085FD16C0A2
:101AC0008091E8008E778093E800E114F10449F0FA
:101AD000F70180819181C80ED91ED182C08285E034
:101AE0000FC00E94980E882321F30AC08991809329
:101AF000F10001501109FFEFCF1ADF0ADACF80E0C1
:101B0000DF91CF911F910F91FF90EF90DF90CF90D9
:101B100008952091B5033091B6032617370748F092
:101B20006115710539F42091E8002E772093E800C3
:101B300001C0B901FC0120E06115710569F18091D6
:101B4000AE038823E1F18530E1F18091E80083FD67
:101B50003AC08091E80082FD2CC08091E80080FFAF
:101B6000EBCF8091F2009091F3006115710551F077
:101B70008830910538F421912093F100615071096A
:101B80000196F3CF21E0089709F020E08091E8006A
:101B90008E778093E800D0CF2111D1CF0AC08091F9
:101BA000AE03882361F0853061F08091E80083FD09
:101BB0000AC08091E80082FFF2CF80E0089582E0C1
:101BC000089583E0089581E008952091B503309150
:101BD000B6032617370748F06115710539F42091CF
:101BE000E8002E772093E80001C0B901FC0120E055
:101BF0006115710581F18091AE03882309F43EC01F
:101C0000853009F43DC08091E80083FD3BC08091A0
:101C1000E80082FD2DC08091E80080FFE9CF80912F
:101C2000F2009091F3006115710559F0883091052B
:101C300040F424912093F10031966150710901968E
:101C4000F2CF21E0089709F020E08091E8008E773C
:101C50008093E800CDCF2111CECF0AC08091AE0392
:101C6000882361F0853061F08091E80083FD0AC02F
:101C70008091E80082FFF2CF80E0089582E008952D
:101C800083E0089581E00895982F973068F5909348
:101C9000E900981739F07091EC002091ED00509117
:101CA000F00003C0242F762F50E021FD02C09F5F7B
:101CB000ECCF3091EB003E7F3093EB003091ED00A4
:101CC0003D7F3093ED003091EB0031603093EB00BD
:101CD0007093EC002093ED005093F0002091EE0003
:101CE00027FDE5CF80E008958F708093E90081E0C3
:101CF00008958091AF0387FF11C08091E80082FDB5
:101D000005C08091AE038111F8CF11C08091E80029
:101D10008B770BC08091AE03882349F08091E80057
:101D200080FFF8CF8091E8008E778093E8000895D7
:101D30002091E4003091E50095E64091EC00842F7D
:101D4000817040FF23C08091E80080FD1DC080911C
:101D5000AE03882399F0853099F08091EB0085FDE2
:101D600011C04091E4005091E5002417350729F394
:101D7000915011F09A01E1CF84E0089582E0089536
:101D800083E0089581E0089580E008954091E8009F
:101D900042FFDDCF08950E943C0F0E94440FE0EE09
:101DA000F0E0808181608083E8EDF0E080818F77D2
:101DB000808319BCA7EDB0E08C918E7F8C938081DD
:101DC0008F7E80831092AD0308950F931F93CF935E
:101DD000DF930E943C0F0E94440FC8EDD0E0888141
:101DE0008F77888388818068888388818F7D8883C6
:101DF000E7EDF0E080818068808319BC1092AE032B
:101E00001092AA031092AC031092AB0300EE10E004
:101E1000F80180818B7F808388818160888342E0A4
:101E200060E080E00E94440EE1EEF0E080818E7F71
:101E30008083E2EEF0E08081816080838081886031
:101E40008083F80180818E7F808388818061888390
:101E5000DF91CF911F910F910895E8EDF0E080811F
:101E60008F7E8083E7EDF0E080818160808381E078
:101E70008093AD030C94E50EE8EDF0E080818C7F5B
:101E800080831092E20008951092DA001092E1002F
:101E900008951F920F920FB60F9211240BB60F9256
:101EA0002F933F934F935F936F937F938F939F9362
:101EB000AF93BF93EF93FF938091E10082FF0BC03C
:101EC0008091E20082FF07C08091E1008B7F8093C8
:101ED000E1000E94BD118091DA0080FF1FC0809157
:101EE000D80080FF1BC08091DA008E7F8093DA00DB
:101EF0008091D90080FF0DC084E189BD86E189BD54
:101F000009B400FEFDCF81E08093AE030E94B40BC4
:101F100005C019BC1092AE030E94C20B8091E10073
:101F200080FF19C08091E20080FF15C08091E2001F
:101F30008E7F8093E2008091E20080618093E200D6
:101F40008091D80080628093D80019BC85E080938E
:101F5000AE030E94C60B8091E10084FF30C08091E7
:101F6000E20084FF2CC084E189BD86E189BD09B40B
:101F700000FEFDCF8091D8008F7D8093D8008091A6
:101F8000E1008F7E8093E1008091E2008F7E80935C
:101F9000E2008091E20081608093E2008091AA03D8
:101FA000882311F084E007C08091E30087FD02C020
:101FB00081E001C083E08093AE030E94C70B809153
:101FC000E10083FF29C08091E20083FF25C080915A
:101FD000E100877F8093E10082E08093AE0310925E
:101FE000AA038091E1008E7F8093E1008091E2005E
:101FF0008E7F8093E2008091E20080618093E20016
:1020000042E060E080E00E94440E8091F000886031
:102010008093F0000E94C50BFF91EF91BF91AF91AB
:102020009F918F917F916F915F914F913F912F91F0
:102030000F900BBE0F900FBE0F901F9018951F9220
:102040000F920FB60F9211240BB60F922F933F935E
:102050004F935F936F937F938F939F93AF93BF93B0
:10206000CF93DF93EF93FF93C091E900CF708091FE
:10207000EC00D82FD17080FDD0E81092E90080915B
:10208000F000877F8093F00078940E946710109290
:10209000E9008091F00088608093F000CD2BCF7034
:1020A000C093E900FF91EF91DF91CF91BF91AF9184
:1020B0009F918F917F916F915F914F913F912F9160
:1020C0000F900BBE0F900FBE0F901F9018951F938F
:1020D000CF93DF93CDB7DEB7AA970FB6F894DEBFE4
:1020E0000FBECDBFEFEAF3E08091F100819323E0D2
:1020F000E73BF207C9F70E94DD0B8091E80083FF00
:1021000024C18091AF039091B003492F50E04A3031
:10211000510508F01AC1FA01E45BFF4F0C947021DD
:10212000803881F0823809F010C18091B3038F703C
:102130008093E9008091EB0085FB882780F910925D
:10214000E90006C08091AB039091AC0391118260CD
:102150009091E800977F9093E8008093F1001092AF
:10216000F100C8C0282F2D7F09F0EFC0882319F097
:10217000823061F0EAC08091B103813009F0E5C09E
:10218000933009F080E08093AC032BC08091B103C1
:10219000811127C08091B3038F7009F4D6C080935A
:1021A000E9002091EB0020FF1CC0933021F48091C6
:1021B000EB00806214C09091EB0090619093EB0073
:1021C00021E030E0A90102C0440F551F8A95E2F7D3
:1021D0004093EA001092EA008091EB0088608093BF
:1021E000EB001092E9008091E800877F86C08111A2
:1021F000ACC01091B1031F778091E3008078812BF0
:102200008093E3008091E800877F8093E8000E943C
:10221000790E8091E80080FFFCCF8091E300806818
:102220008093E300111102C082E001C083E080933B
:10223000AE038BC08058823008F087C08091B10314
:102240009091B2038C3D53E0950779F583E08A8342
:102250008AE289834FB7F894DE01139620E03EE0CE
:1022600051E2E32FF0E050935700E49120FF03C0C8
:10227000E295EF703F5FEF708E2F90E0EA3010F044
:10228000C79601C0C0968D939D932F5F243149F767
:102290004FBF8091E800877F8093E8006AE270E09A
:1022A000CE0101960E94890D14C0AE014F5F5F4FB1
:1022B0006091B3030E94D20CBC01892B09F445C084
:1022C0009091E800977F9093E80089819A810E941D
:1022D000E50D8091E8008B778093E80036C0803868
:1022E000A1F58091E800877F8093E8008091AA03A0
:1022F0008093F1008091E8008E778093E8000E943F
:10230000790E23C0811121C08091B1039091B20355
:1023100099270297D4F48091E800877F8093E800A2
:102320008091B1038093AA030E94790E8091AA0341
:10233000811106C08091E30087FD02C081E001C0E9
:1023400084E08093AE030E94C90B8091E80083FF74
:102350000AC08091E800877F8093E8008091EB00BD
:1023600080628093EB00AA960FB6F894DEBF0FBE92
:10237000CDBFDF91CF911F9108950895CF938091A4
:10238000AE038823A1F0C091E900CF709091EC00DA
:10239000892F817090FD80E8C82B1092E900809110
:1023A000E80083FD0E946710CF70C093E900CF91D1
:1023B000089590933E0380933D030895E0913D037B
:1023C000F0913E03309721F00190F081E02D0994C7
:1023D00080E00895E0913D03F0913E03309721F0B5
:1023E0000280F381E02D09940895E0913D03F0917E
:1023F0003E03309721F00480F581E02D0994089583
:1024000020913B0330913C032817390771F09093DA
:102410003C0380933B03E0913D03F0913E033097F2
:1024200021F00680F781E02D099408952091390369
:1024300030913A032817390771F090933A0380934B
:102440003903E0913D03F0913E03309721F0008481
:10245000F185E02D0994089508950C942C120E94A2
:102460007A1D0C947E085F926F927F928F929F925A
:10247000AF92BF92CF92DF92EF92FF920F931F9392
:10248000CF93DF93CDB7DEB72A970FB6F894DEBFB0
:102490000FBECDBF0E94820990E4692E93E0792E91
:1024A00000E010E088248394912C502E802F0E940D
:1024B000CB0A6C01F301A190B1903F01A826B92687
:1024C000A114B104B1F40F5F1F4F0430110569F777
:1024D0008FEF89838A831B820E94831D8160782FFE
:1024E0009D838C8349815A816B818D810E94EB127F
:1024F00039C080919B0381FD0E94D40A80E090E066
:102500007401082E02C0EE0CFF1C0A94E2F795013C
:102510002E213F21232B09F18E835F82CE20DF20E5
:1025200081E0CD2809F480E088870E94831D8160C6
:10253000782F9A8789874E815F8168858A850E9476
:10254000EB12000F111FF801E05CFC4F80819181BC
:10255000E826F926F182E08205C001968C309105CB
:1025600079F6B1CF0E947A1F0E94DE1190913F034D
:102570008917D9F00E94DE1180933F032A960FB687
:10258000F894DEBF0FBECDBFDF91CF911F910F91A9
:10259000FF90EF90DF90CF90BF90AF909F908F9083
:1025A0007F906F905F900C94BB072A960FB6F894BB
:1025B000DEBF0FBECDBFDF91CF911F910F91FF9076
:1025C000EF90DF90CF90BF90AF909F908F907F90D3
:1025D0006F905F900895CF93DF93CDB7DEB72B97C1
:1025E0000FB6F894DEBF0FBECDBF4F835887698703
:1025F0007A878B87DE01119686E0FD0111928A951C
:10260000E9F785E0FE01379601900D928A95E1F792
:1026100049815A816B817C818D819E810E949219B2
:102620002B960FB6F894DEBF0FBECDBFDF91CF91D2
:102630000895882309F490C09CEF980F913A18F4FC
:102640000E94211C0DC090E2980F983058F48770BA
:1026500091E001C0990F8A95EAF7892F0E94A11C89
:102660000C94D81C9BE5980F933070F4853A29F0B0
:10267000863A31F083E890E005C081E890E002C03E
:1026800082E890E00C94001298E5980F933108F0DE
:1026900063C0883A39F1893A41F18A3A49F18B3A73
:1026A00051F18C3A59F18D3A61F1803B69F18E3AE2
:1026B00071F18F3A79F1813B81F1823B89F1833B62
:1026C00091F1843B99F1853BA1F1863BA9F1873BD0
:1026D000B1F1883BB9F1893BC1F18A3BC9F180E096
:1026E00090E038C082EE90E035C089EE90E032C0D4
:1026F0008AEE90E02FC085EB90E02CC086EB90E056
:1027000029C087EB90E026C08CEC90E023C08DECD4
:1027100090E020C083E891E01DC08AE891E01AC0F3
:1027200082E991E017C084E991E014C081E292E06F
:1027300011C083E292E00EC084E292E00BC085E219
:1027400092E008C086E292E005C087E292E002C013
:102750008AE292E00C9416120895882329F19CEFE6
:10276000980F913A18F40E94601C0DC090E2980FE7
:10277000983058F4877091E001C0990F8A95EAF774
:10278000892F0E94A71C0C94D81C9BE5980F9330AE
:1027900020F480E090E00C940012885A833120F4F9
:1027A00080E090E00C9416120895882321F00E9496
:1027B000A11C0C94D81C0895882321F00E94A71C0A
:1027C0000C94D81C0895CF92DF92EF92FF920F9352
:1027D0001F93CF93DF9300D000D01F92CDB7DEB709
:1027E0006C0185E0F601DE01119601900D928A954B
:1027F000E1F7F6012081818143815481452B31F03D
:102800008F3F31F491E02F3F19F403C091E001C0F4
:1028100090E090FDAEC2F601F280E580E2949FE088
:10282000E92229838A8389819A810E94E01B8C0195
:102830000E94DF1B0E94D31AE12FE295EF708E2FCA
:1028400090E0FC01EA5AFF4F0C947021812F807FA9
:102850001F70882311F01295107FFF2049F011237B
:1028600009F43CC2812F0E94B11C0E94D81C36C2C0
:10287000802F0E94AD13112309F47BC2812F0E9487
:10288000B71C0F900F900F900F900F90DF91CF918A
:102890001F910F91FF90EF90DF90CF900C94D81C78
:1028A000812F807F1F70803211F01295107F0023DE
:1028B00019F0013009F13BC0FF20A9F0EE2011F121
:1028C000F1E0812FEF121FC00F900F900F900F902B
:1028D0000F90DF91CF911F910F91FF90EF90DF90BC
:1028E000CF900C94C11CEE2021F081E0E81609F491
:1028F00040C20E94C41C28C0FF20A1F0E2E0EE15F7
:1029000008F437C2812F0F900F900F900F900F9007
:10291000DF91CF911F910F91FF90EF90DF90CF90BB
:102920000C94D513F1E0FE1508F423C20DC0FF206E
:1029300049F0EE2039F3F601858180FFCFC18F7019
:102940008583E0CFE110DDC1812F50C1812F8695B5
:102950008695837019F08130B9F00BC2FF2019F011
:10296000C801937002C080E090E00F900F900F902C
:102970000F900F90DF91CF911F910F91FF90EF90EB
:10298000DF90CF900C940012FF2019F0C8019370D3
:1029900002C080E090E00F900F900F900F900F908A
:1029A000DF91CF911F910F91FF90EF90DF90CF902B
:1029B0000C941612802FFF2019F00E94821E02C074
:1029C0000E94EA1E0F900F900F900F900F90DF91D2
:1029D000CF911F910F91FF90EF90DF90CF900C94CB
:1029E0006F1F812F837009F070C0F110C2C1202FBA
:1029F000229526952770220F220F602F6F70862F49
:102A000090E0A0E0B0E06C017D01022E04C0CC0C8F
:102A1000DD1CEE1CFF1C0A94D2F704FF12C08FE0ED
:102A200090E0A0E0B0E004C0880F991FAA1FBB1F70
:102A30002A95D2F7BC01CD0160957095809590954F
:102A400003C060E070E0CB0116951695137012304C
:102A5000B1F040F56C297D298E299F29113031F183
:102A60000F900F900F900F900F90DF91CF911F91CB
:102A70000F91FF90EF90DF90CF900C94F01A6C299B
:102A80007D298E299F290F900F900F900F900F9006
:102A9000DF91CF911F910F91FF90EF90DF90CF903A
:102AA0000C940C1B0E94F01AC701B6010F900F90F6
:102AB0000F900F900F90DF91CF911F910F91FF908A
:102AC000EF90DF90CF900C94D41AFF2019F0812F53
:102AD000817001C08695882309F44BC1202F22956F
:102AE00026952770220F220F602F6F70862F90E09F
:102AF000A0E0B0E06C017D01022E04C0CC0CDD1C16
:102B0000EE1CFF1C0A94D2F704FF12C08FE090E085
:102B1000A0E0B0E004C0880F991FAA1FBB1F2A9530
:102B2000D2F7BC01CD01609570958095909503C05A
:102B300060E070E0CB011695169513701230B1F07D
:102B400040F56C297D298E299F29113031F10F9094
:102B50000F900F900F900F90DF91CF911F910F91D9
:102B6000FF90EF90DF90CF900C94BB1B6C297D29D8
:102B70008E299F290F900F900F900F900F90DF914B
:102B8000CF911F910F91FF90EF90DF90CF900C9419
:102B9000CD1B0E94BB1BC701B6010F900F900F9079
:102BA0000F900F90DF91CF911F910F91FF90EF90B9
:102BB000DF90CF900C94A91B003F39F118F4003E30
:102BC00048F487C0023F09F44FC0D8F1033F09F42D
:102BD0005EC07FC00F70812F8F71FF2021F00E9497
:102BE000421B802F90CE0E94631B802F0F900F906E
:102BF0000F900F900F90DF91CF911F910F91FF9049
:102C0000EF90DF90CF900C94DC13FF20A9F0F1E05F
:102C1000FE1508F4AEC0812F8F710F900F900F90AA
:102C20000F900F90DF91CF911F910F91FF90EF9038
:102C3000DF90CF900C94881B82E08E1508F499C029
:102C4000EACFFF2099F0812F8F710F900F900F9096
:102C50000F900F90DF91CF911F910F91FF90EF9008
:102C6000DF90CF900C94421BFF2069F3812F8F716E
:102C70000F900F900F900F900F90DF91CF911F91B9
:102C80000F91FF90EF90DF90CF900C94631BFF208B
:102C900089F0812F8F710F900F900F900F900F90F0
:102CA000DF91CF911F910F91FF90EF90DF90CF9028
:102CB0000C942D1B0F900F900F900F900F90DF91A1
:102CC000CF911F910F91FF90EF90DF90CF900C94D8
:102CD000281BFF2099F0EE2009F4B5CF802F0F902C
:102CE0000F900F900F900F90DF91CF911F910F9148
:102CF000FF90EF90DF90CF900C941913EE2009F421
:102D0000B5CF802F0F900F900F900F900F90DF9105
:102D1000CF911F910F91FF90EF90DF90CF900C9487
:102D2000AD13412F4F70602FC6010E9486020F9095
:102D30000F900F900F900F90DF91CF911F910F91F7
:102D4000FF90EF90DF90CF900C94401A412F4F707E
:102D5000602FC6010F900F900F900F900F90DF9192
:102D6000CF911F910F91FF90EF90DF90CF900C9437
:102D70002A060F900F900F900F900F90DF91CF9138
:102D80001F910F91FF90EF90DF90CF9008950E94D8
:102D9000BE1C0E94931C0E94D81C0E941F200E94EF
:102DA0006F1F80E090E00E94001280E090E00C94A1
:102DB00016120E94AE1C0C94C7160E94E01B292F0D
:102DC00022952F702C3030F42A3048F422502230D3
:102DD00078F405C02C3041F02F3031F009C0803E2E
:102DE00048F0803F29F406C093FB882780F90895B6
:102DF00080E0089581E00895CF93DF9300D000D064
:102E00001F92CDB7DEB70F900F900F900F900F90DD
:102E1000DF91CF910895CF93DF9300D000D000D001
:102E2000CDB7DEB726960FB6F894DEBF0FBECDBF86
:102E3000DF91CF9108951F93CF93DF93C091480303
:102E400016E080914903C81799F0D0E01C9FF0016B
:102E50001D9FF00D1124E65BFC4F40815181628182
:102E60007381848195810E940B172196C770E9CFE9
:102E7000DF91CF911F91089540917A0350917B0388
:102E800060917C0370917D0380917E0390917F031C
:102E90000C940B17CF9380917F0382958F7009F06C
:102EA0005FC080917C03882309F45AC08091480355
:102EB000B091490370917A03A0917B0340917D0307
:102EC00050917E0391E07F3F09F090E0692FC6E0CA
:102ED0008B1709F445C04115510521F0AF3F21F092
:102EE00020E003C021E001C0262F90E020FD35C086
:102EF000C89FF001C99FF00D1124E65BFC4F2181B2
:102F00002A132BC02081271328C02281211125C01C
:102F1000238134812417350710F421503109241BF3
:102F2000350B283C3105C8F420917F032F702061B8
:102F300020937F0326E0289FF001299FF00D1124A4
:102F4000E15BFC4F80818F70806180838AE793E032
:102F50000E94E313CF910C941B1701968770B8CF92
:102F6000CF910895AF92BF92CF92DF92EF92FF92EE
:102F70000F931F93CF93DF93CDB7DEB761970FB653
:102F8000F894DEBF0FBECDBF8C0185E0F801DE01F5
:102F90001D9601900D928A95E1F7D8014C911196FA
:102FA0005C9111971296EC9030917A0360917B03BB
:102FB00080917D0390917E03009731F06F3F31F453
:102FC00021E03F3F19F403C021E001C020E0B22F0F
:102FD000B170BB2E20FD64C1F801C380D480A090E5
:102FE0007C03AA2009F4C3C020917F03C816D90628
:102FF00028F0D601A81BB90BCD0104C0809590958F
:103000008C0D9D1DFF24F394883C910580F0F12CDC
:10301000207F09F09CC07C2DD98AC88A6E2D8989B1
:103020000E94FC168AE793E00E94E313B4C0822F4B
:10303000807F09F054C0561314C0431312C0FE2CF5
:10304000E1100FC02F70206120937F030E943C1776
:103050008AE793E00E94E31380917F03F801858360
:103060004FC1CD2831F05F3F31F481E04F3F19F47B
:1030700003C081E001C080E080FD03C081E08E25B7
:1030800002C080E090E0F82FF170FF2E80FF1CC09E
:10309000809148032091490336E0821709F40DC15D
:1030A00090E0389FF001399FF00D1124E65BFC4F52
:1030B0006181561306C06081461303C06281E61227
:1030C00003C001968770E9CFFE2CEE2009F418C1E9
:1030D00080917F03816080937F03F12C11C156138F
:1030E00009C0431307C0E11005C080917F03F801B8
:1030F0008583B0C04D875E878D859E850E94DD16D5
:10310000882379F1EE2069F120917F03822F829547
:103110008F7090E0029774F080917A0390917B0316
:1031200098878F831986DB86CA862C87CE010796FF
:103130000E94E31386E0F801AAE7B3E001900D9244
:103140008A95E1F70E944A170E943C170DC0561756
:1031500061F14D875E878D859E850E94DD16811108
:1031600038C0C8010E94E313FF24F394C9C0C816F5
:10317000D90608F446C0F601E81BF90BCF01883CDC
:10318000910508F443C0F12C7C2DD98AC88A6E2D94
:1031900089890E94FC16EAE7F3E086E0DF011D92D0
:1031A0008A95E9F70E943C17ABC04313D2CFE110D8
:1031B000D0CF80917F03F8018583C8010E94E3137B
:1031C00086E0EAE7F3E0DF011D928A95E9F7FA2C41
:1031D00097C0EE2031F220917F03822F82958F706D
:1031E00090E002970CF4A6CF80917A0390917B0334
:1031F0009A8389831B82DD82CC822E83CE01019645
:1032000097CF809590958C0D9D1DB9CFFE2CEE200B
:1032100009F4A7CF561333C0431331C020917F0365
:1032200020FD24C0822F82958F70482F50E04115D9
:103230005105E1F0D80115962C9315974F305105A3
:1032400049F08F5F982F9295907F822F8F70892BF6
:1032500015968C93C8010E94E31386E0F801AAE753
:10326000B3E001900D928A95E1F79CCF86E0F801DA
:10327000AAE7B3E001900D928A95E1F741C04D872E
:103280005E878D859E850E94DD16811153CF8091CA
:103290007F03816080937F03C8010E94E31330C0E5
:1032A000EE2009F45ECF4D875E878D859E850E9456
:1032B000DD16882309F455CF3DCF4D875E878D8578
:1032C0009E850E94E01B292F22952F70223028F422
:1032D0009F7039F0811105C00BC0243028F49F7015
:1032E00049F4805E883020F0C8010E94E313BF2CAF
:1032F000FB2C06C0D80115969C91907F91F7F8CFD2
:103300008F2D61960FB6F894DEBF0FBECDBFDF9153
:10331000CF911F910F91FF90EF90DF90CF90BF90D2
:10332000AF9008951F93CF93DF93CDB7DEB72C975F
:103330000FB6F894DEBF0FBECDBF4F8358876987A5
:103340007A878B879C87CE0107960E94B2178823C5
:10335000D1F09F8188852A853B85232B31F08F3FD3
:1033600031F481E09F3F19F403C081E001C080E0A7
:1033700080FD47C04F81588569857A858B859C85FE
:103380000E940B173EC086E0FE013796DE011196C3
:1033900001900D928A95E1F7FF81E8856A857B852A
:1033A0006115710531F0EF3F31F481E0FF3F19F411
:1033B00003C081E001C080E080FD23C0209149036B
:1033C00030E0C9010196877099274091480350E089
:1033D00084179507F1F1F983EA837D836C8396E086
:1033E000929FD001939FB00D1124A65BBC4FFE01AC
:1033F000319601900D929A95E1F7809349030E94CE
:103400001B1716E08091480390914903891771F1C9
:10341000189FC0011124865B9C4F0E94B21788231D
:1034200029F1E09148031E9FF0011124E65BFC4F57
:103430004081518162817381848195810E940B1743
:103440008091480390E00196877099278093480304
:10345000D9CF0E94D9161092490310924803EAE787
:10346000F3E086E0DF011D928A95E9F72C960FB60E
:10347000F894DEBF0FBECDBFDF91CF911F910895AD
:10348000EF92FF920F931F93CF93DF938C01892BC1
:1034900009F46CC0F12CEE24E394E8012196F801C4
:1034A0008491843740F4843008F051C0813081F039
:1034B000823019F15BC0853709F444C0A8F19CE75C
:1034C000980F903708F052C08F770E94AD1341C01B
:1034D0000E5F1F4FFE01849190E2980F983050F4D8
:1034E0008770FE2D01C0FF0F8A95EAF78F2F0E948B
:1034F000B11C14C00E9419132DC00E5F1F4FFE0196
:10350000849190E2980F983060F48770FE2D01C08E
:10351000FF0F8A95EAF78F2F0E94B71C0E94D81CD4
:1035200019C00E94AD1316C00E5F1F4FFE01C4915B
:10353000CC2381F08FE99FE00197F1F700C00000F4
:10354000C150F6CF0E5F1F4FFE01F49003C00E94E2
:1035500019138E018F2D882309F49FCFEFE9FFE027
:103560003197F1F700C000008150F5CFDF91CF9186
:103570001F910F91FF90EF900895CF92DF92EF92FD
:10358000FF926B017C010E94AC02C0928003D0923A
:103590008103E0928203F0928303FF90EF90DF902B
:1035A000CF900C94C71608950F931F930091840336
:1035B000109185032091860330918703DC01CB01B4
:1035C000802B912BA22BB32B8093840390938503A4
:1035D000A0938603B09387031F910F910C94C71695
:1035E0000F931F930091840310918503209186030C
:1035F00030918703DC01CB0180239123A223B323E5
:103600008093840390938503A0938603B0938703EC
:103610001F910F910C94C7160F931F930091840371
:10362000109185032091860330918703DC01CB0143
:1036300080279127A227B327809384039093850343
:10364000A0938603B09387031F910F910C94C71624
:1036500060E070E0CB010C94BD1A0F931F9341E022
:1036600050E060E070E08A019B0104C0000F111F70
:10367000221F331F8A95D2F7C901B8011F910F91FC
:103680000C94BD1A0F931F9341E050E060E070E08E
:1036900004C0440F551F661F771F8A95D2F780918B
:1036A000800390918103A0918203B09183038A01EA
:1036B0009B01082B192B2A2B3B2BC901B8011F9109
:1036C0000F910C94BD1A0F931F9341E050E060E0FE
:1036D00070E004C0440F551F661F771F8A95D2F70C
:1036E00040955095609570958091800390918103ED
:1036F000A0918203B09183038A019B0108231923BF
:103700002A233B23C901B8011F910F910C94BD1AC4
:103710000F931F9341E050E060E070E004C0440F5D
:10372000551F661F771F8A95D2F78091800390916D
:103730008103A0918203B09183038A019B01082732
:1037400019272A273B27C901B8011F910F910C9413
:10375000BD1A0F931F930091800310918103209154
:10376000820330918303602B712B822B932B1F914B
:103770000F910C94BD1A0F931F9300918003109129
:10378000810320918203309183036023712382237C
:1037900093231F910F910C94BD1A0F931F930091C7
:1037A000800310918103209182033091830360276D
:1037B0007127822793271F910F910C94BD1A0895AA
:1037C000CF92DF92EF92FF920F931F93CF93DF93ED
:1037D0008C01C0908003D0908103E0908203F09030
:1037E00083038091840390918503A0918603B09117
:1037F0008703C82AD92AEA2AFB2ACFE1D0E0D701D9
:10380000C6010C2E04C0B695A795979587950A9486
:10381000D2F780FF07C0B8018C2F0E943B06813091
:10382000910531F4219758F7B80180E00E943B06DA
:10383000DF91CF911F910F91FF90EF90DF90CF908C
:10384000089590912C029923F1F090912D029923E3
:10385000D1F0982F9695969596959F3080F5E091AA
:103860002E02F0912F02E90FF11D877021E030E068
:10387000A90102C0440F551F8A95E2F7CA01918140
:10388000892B8183089520912E0230912F02F90116
:1038900032969FEF40E05191851789F09F3F19F4D0
:1038A000511101C0942F4F5F4E30A9F79F3F39F05F
:1038B000F901E90FF11D97FDFA95828308950895A6
:1038C00090912C029923F9F090912D029923D9F02F
:1038D000982F9695969596959F3020F5E0912E021B
:1038E000F0912F02E90FF11D877021E030E0A9016E
:1038F00002C0440F551F8A95E2F7CA018095918155
:10390000892381830895E0912E02F0912F029F0177
:10391000225F3F4F9281891301C012823196E217D4
:10392000F307C1F7089581E090E0E0912E02F09155
:103930002F02E80FF91F1082019680319105A9F737
:10394000089590919A03892B80939A030895809506
:1039500090919A03892380939A03089510929A0371
:10396000089590919903892B8093990308958095E8
:103970009091990389238093990308951092990354
:103980000895809388030895109288030895809184
:103990002E0290912F02FC0131969C01205F3F4F37
:1039A00080E0919191118F5FE217F307D1F70895AD
:1039B000E0912E02F0912F0280919A038083E09192
:1039C0002E02F0912F02908180919903892B8083A0
:1039D00080918803882361F0E0912E02F0912F02FC
:1039E0009081892B80830E94C71C811110928803CB
:1039F00080912E0290912F020C94EA118091AE03D7
:103A0000843041F110929C0320E488E190E00FB6ED
:103A1000F894A895809360000FBE2093600080E02A
:103A200090E00E94720283B7817F846083BF83B776
:103A3000816083BF7894889583B78E7F83BF0FB6EC
:103A4000F894A8958091600088618093600010923E
:103A500060000FBE089508950C942B1DCF9380E055
:103A600090E00E9472020E942C1D0E9482090E9416
:103A70002B1DC0E08C2F0E94CB0A892B29F4CF5F2D
:103A8000C430C1F780E001C081E0CF9108950E9469
:103A9000D91681E090E00E9472020E94DE110C941F
:103AA000BB071F920F920FB60F9211248F939F9313
:103AB000AF93BF9380919C03811113C080919D03AC
:103AC00090919E03A0919F03B091A0034196A11DE8
:103AD000B11D80939D0390939E03A0939F03B09389
:103AE000A003BF91AF919F918F910F900FBE0F9048
:103AF0001F90189582E084BD93E095BD9AEF97BD25
:103B000080936E0008952FB7F89480919D03909153
:103B10009E03A0919F03B091A0032FBF0895CF9261
:103B2000DF92EF92FF920F931F932FB7F89440917B
:103B30009D0350919E0360919F037091A0032FBF3E
:103B40006A017B01EE24FF248C0120E030E0C016E6
:103B5000D106E206F30610F4415051099A01281BE0
:103B6000390BC9011F910F91FF90EF90DF90CF901B
:103B700008951F920F920FB60F9211248F939F9367
:103B8000AF93BF9380919D0390919E03A0919F035B
:103B9000B091A0030196A11DB11D80939D03909348
:103BA0009E03A0939F03B093A003BF91AF919F91F9
:103BB0008F910F900FBE0F901F9018950E94CB0E03
:103BC000F8942FEF87EA91E6215080409040E1F78A
:103BD00000C0000087E090EBDC018093B703909376
:103BE000B803A093B903B093BA039CE088E10FB681
:103BF000F894A895809360000FBE90936000FFCF6B
:103C00008091A30380FF0BC06091330285E0689F21
:103C1000B001112475956795759567952BC081FF47
:103C200009C06091330285E0689FB0011124759549
:103C3000679520C082FF07C06091330285E0689FCE
:103C4000B001112417C09091A4039923D1F0609181
:103C50003202961788F72091330285E0289F900161
:103C60001124929FA001939F500D112470E0CA016E
:103C70000E945C216038710540F46115710519F4EA
:103C800006C065E070E0862F08958FE7089581E013
:103C900008958091A30380FF08C06091310270E015
:103CA000759567957595679521C081FF06C06091F0
:103CB000310270E07595679519C082FF04C060916C
:103CC000310270E010C09091A403992399F06091A3
:103CD00030029617A0F780913102899FC00111240C
:103CE00070E00E945C216038710540F46115710537
:103CF00019F406C061E070E0862F08958FE70895FB
:103D000081E00895803F21F40E94001E819504C047
:103D1000813F29F40E94001E8093A7030895823FEB
:103D200021F40E94001E819504C0833F29F40E9463
:103D3000001E8093A6030895893F19F40E94491E2E
:103D400005C08A3F31F40E94491E81958093A803E3
:103D500008958B3F21F40E94491E819504C08C3F39
:103D600029F40E94491E8093A9030895843F21F4F9
:103D70008091A503816017C0853F21F48091A50340
:103D8000826011C0863F21F48091A50384600BC03E
:103D9000873F21F48091A503886005C0883F31F4F6
:103DA0008091A50380618093A50308958D3F21F440
:103DB0008091A30381600BC08E3F21F48091A30307
:103DC000826005C08F3F29F48091A30384608093B3
:103DD000A3030895803F39F48091A70387FF6CC047
:103DE0001092A70369C0813F29F48091A703181698
:103DF000BCF362C09091A603823F29F497FF5CC098
:103E00001092A60359C0833F19F41916CCF354C07D
:103E1000893F41F48091A80318160CF04DC0109210
:103E2000A8034AC08A3F29F48091A80387FF44C0B1
:103E3000F6CF8B3F39F48091A90387FF3DC01092E4
:103E4000A9033AC08C3F29F48091A9031816BCF34A
:103E500033C0843F21F48091A5038E7F17C0853F36
:103E600021F48091A5038D7F11C0863F21F48091BC
:103E7000A5038B7F0BC0873F21F48091A503877F2B
:103E800005C0883F31F48091A5038F7E8093A50300
:103E900013C08D3F21F48091A3038E7F0BC08E3F12
:103EA00021F48091A3038D7F05C08F3F29F4809179
:103EB000A3038B7F8093A3038091A60381110EC07F
:103EC0008091A70381110AC08091A803811106C0C7
:103ED0008091A903811102C01092A403089585EA7C
:103EE00093E00E94F5110E94831D9093A20380939A
:103EF000A10308951F93CF93DF938091A103909125
:103F0000A2030E948F1DAC019091A403992321F07C
:103F10002091340230E006C0209135028AE0289FCB
:103F2000900111244217530708F485C08091A6031D
:103F3000C091A703D091A8031091A903811107C0D4
:103F4000C11175C0D11173C0111171C074C09F3FF0
:103F500019F09F5F9093A403181624F40E94001E8A
:103F60008093A6038091A60387FF05C00E94001ED0
:103F700081958093A6031C1624F40E94001E809352
:103F8000A7038091A70387FF05C00E94001E8195AB
:103F90008093A7036091A603662331F1C091A70324
:103FA000CC2311F1062E000C770B880B990B0E9485
:103FB000632023E333E343E35FE30E94C7200E94CF
:103FC0002B206093A6036C2FCC0F770B880B990BDB
:103FD0000E94632023E333E343E35FE30E94C720AF
:103FE0000E942B206093A7031D1624F40E94491EF3
:103FF0008093A8038091A80387FF05C00E94491EF3
:1040000081958093A803111624F40E94491E809381
:10401000A9038091A90387FF05C00E94491E8195CD
:104020008093A903DF91CF911F910C946F1F9F3F45
:1040300009F08FCFA0CFDF91CF911F910895E5EACE
:10404000F3E085E0DF011D928A95E9F71092A40361
:104050001092A30308950E9432206894B1110C9429
:10406000C12008950E94A62088F09F5798F0B92F8C
:104070009927B751B0F0E1F0660F771F881F991F9D
:104080001AF0BA95C9F714C0B13091F00E94C0205F
:10409000B1E008950C94C020672F782F8827B85F6F
:1040A00039F0B93FCCF3869577956795B395D9F7F5
:1040B0003EF490958095709561957F4F8F4F9F4FFF
:1040C0000895E89409C097FB3EF49095809570950B
:1040D00061957F4F8F4F9F4F9923A9F0F92F96E954
:1040E000BB279395F695879577956795B795F111C9
:1040F000F8CFFAF4BB0F11F460FF1BC06F5F7F4F66
:104100008F4F9F4F16C0882311F096E911C0772377
:1041100021F09EE8872F762F05C0662371F096E880
:10412000862F70E060E02AF09A95660F771F881F4F
:10413000DAF7880F9695879597F9089557FD905867
:10414000440F551F59F05F3F71F04795880F97FB5B
:10415000991F61F09F3F79F0879508951216130615
:104160001406551FF2CF4695F1DF08C01616170644
:104170001806991FF1CF8695710561050894089579
:10418000E894BB2766277727CB0197F908950E940B
:10419000DA200C944B210E943D2138F00E944421EA
:1041A00020F0952311F00C9434210C943A21112421
:1041B0000C94C1200E949E2070F3959FC1F3950F2F
:1041C00050E0551F629FF001729FBB27F00DB11D9B
:1041D000639FAA27F00DB11DAA1F649F6627B00D2B
:1041E000A11D661F829F2227B00DA11D621F739F14
:1041F000B00DA11D621F839FA00D611D221F749F22
:104200003327A00D611D231F849F600D211D822F68
:10421000762F6A2F11249F5750409AF0F1F088238F
:104220004AF0EE0FFF1FBB1F661F771F881F9150BC
:104230005040A9F79E3F510580F00C9434210C9416
:10424000C1205F3FE4F3983ED4F386957795679558
:10425000B795F795E7959F5FC1F7FE2B880F911DE6
:104260009695879597F9089597F99F6780E870E08C
:1042700060E008959FEF80EC089500240A941616DC
:10428000170618060906089500240A941216130644
:10429000140605060895092E0394000C11F48823D2
:1042A00052F0BB0F40F4BF2B11F460FF04C06F5FEE
:1042B0007F4F8F4F9F4F089597FB072E16F4009462
:1042C00007D077FD09D00E94792107FC05D03EF484
:1042D000909581959F4F0895709561957F4F0895B2
:1042E000EE0FFF1F0024001C0BBE0790F691E02D7F
:1042F0000994AA1BBB1B51E107C0AA1FBB1FA6172D
:10430000B70710F0A61BB70B881F991F5A95A9F77E
:0E43100080959095BC01CD010895F894FFCFE3
:10431E00FF00000000000000000000000000000090
:10432E00000000000000000000000000000000007F
:10433E00000000000000000000000000000000006F
:10434E0001FFFFFFFFFFFFFFFFFFFFFFFFFFFFFF6D
:10435E00FFFFFFFFFFFFFFFFFFFFFFFFFFFFFFFF5F
:10436E00FFFFFFFFFFFFFFFFFFFFFFFFFFFFFFFF4F
:10437E00FFFFFFFFFFFFFFFF0F0F0FFFFFFFFFFF0F
:10438E00FFFFFFFF0F0F0FFFFFFFFFFFFFFFFFFFFF
:10439E000F0F0FFFFFFFFFFFFFFFFFFF0FFFFFFFDF
:1043AE00FFFFFFFFFFFFFFFFFFFFFFFFFFFFFFFF0F
:1043BE00FFFFFF0F0F0F0FFFFFFFFFFFFFFFFFFFBF
:1043CE00FFFFFFFFFFFFFFFFFFFFFFFFFFFFFFFFEF
:1043DE00FFFFFF0FFFFFFFFFFFFFFFFF0FFF0F0F9F
:1043EE000FFF0FFFFFFFFFFFFFFFFFFFFFFFFFFFAF
:1043FE00FFFFFFFFFFFF0FFFFFFFFFFFFF0F0F0F7F
:10440E000FFFFF0FFFFFFFFF0F0F0F0F0FFF0F0F1E
:10441E000FFFFFFF0F0F0F0FFFFFFFFFFFFFFFFF4E
:10442E00FFFFFFFFFFFFFFFFFFFFFFFFFFFFFFFF8E
:10443E00FF05D50A630B400B0C0BD80A010189034B
:10444E002808140A321E4400450046004700430067
:10445E0042004100400027002600250024002300D2
:10446E002200210020003F4D36390904BC0386038B
:0A447E004D03E002F90212032B03C4
:00000001FF
